:100000000C9472000C948B000C948B000C948B005D
:100010000C948B000C948B000C948B000C948B0034
:100020000C948B000C948B000C948B000C948B0024
:100030000C948B000C948B000C948B000C948B0014
:100040000C948B000C948B000C948B000C948B0004
:100050000C948B000C948B000C948B000C948B00F4
:100060000C948B000C948B000C948B000C948B00E4
:100070000C948B000C948B000C948B000C948B00D4
:100080000C948B000C948B000C948B000C948B00C4
:100090000C948B000C948B000C948B000C948B00B4
:1000A0000C948B000C948B000C948B000C948B00A4
:1000B0000C948B000C948B000C948B000C948B0094
:1000C0000C948B000C948B000C948B000C948B0084
:1000D0000C948B000C948B000C948B000C948B0074
:1000E0000C948B0011241FBECFEFD1E2DEBFCDBF39
:1000F00000E00CBF12E0A0E0B2E0E0EEF8E000E0CB
:100100000BBF02C007900D92AA30B107D9F70E9429
:1001100088020C946E040C94000028E0EBE0F1E0FF
:1001200016C090819F779083A7ECB0E01197F1F70C
:1001300000C00000908190649083A7ECB0E011971C
:10014000F1F700C0000086952150222349F09081EC
:100150009F7B908380FFE5CF908190689083E4CF70
:10016000EBE0F1E080818F7B8083AAE0B1E08C91AD
:100170008F778C9387EC90E00197F1F700C0000037
:1001800080818064808387EC90E00197F1F700C064
:10019000000080818F7B80838C9180688C93089590
:1001A000EAE0F1E0808180688083EBE0F1E080812B
:1001B0008068808380818064808387EC90E00197F1
:1001C000F1F700C0000080818F77808387EC90E09A
:1001D0000197F1F700C0000080818F7B8083089534
:1001E000EBE0F1E080818F7B808380818F7780835B
:1001F00087EC90E00197F1F700C0000080818064F7
:10020000808387EC90E00197F1F700C000008081C7
:10021000806880830895BF92CF92DF92EF92FF9221
:100220000F931F93CF93DF93082F192FC62FD72F2C
:100230009801ADECBCEC0E945F046C01D694C794AD
:10024000D694C794D694C794C601880F991F880F77
:10025000991F8C0D9D1D880F991F081B190B9E015E
:100260000E945F047C01F694E794F694E794F69478
:10027000E794BE2CC701880F991F880F991F8E0D18
:100280009F1D880F991FC81BD90B0E94D00080E4C6
:100290000E948D000E94F0000E94D00080EC0E941D
:1002A0008D00C1101FC080E00E948D00F801E05059
:1002B000FE4F80810E948D00B1101CC080E00E9422
:1002C0008D00C050DE4F88810E948D000E94F0009A
:1002D000DF91CF911F910F91FF90EF90DF90CF9022
:1002E000BF900895F601FF27E050FE4F80810E94E5
:1002F0008D00DCCFF701FF27E050FE4F80810E9488
:100300008D00DFCF989A999A9A9A57983898509872
:10031000A098A198A2985F9A409A589A0895209A16
:10032000289AEAE0F1E080818160808380818460A6
:100330008083219A229A23988081826080838081A1
:1003400088608083EBE0F1E0808181608083808140
:1003500084608083808182608083808188608083E4
:100360008CB580648CBD8CB58F7D8CBD8CB5806167
:100370008CBD8CB5877F8CBD8CB58B7F8CBD8CB5CF
:100380008D7F8CBD8CB58E7F8CBD8DB58E7F8DBDE8
:100390000895EBE0F1E08081826080832FEF80E7B9
:1003A00092E0215080409040E1F700C00000808141
:1003B0008D7F80832FEF80E792E021508040904036
:1003C000E1F700C000008081826080832FEF80E72A
:1003D00092E0215080409040E1F700C00000808111
:1003E000886080832FEF80E792E02150804090402A
:1003F000E1F700C000008081877F80832FEF80E7D6
:1004000092E0215080409040E1F700C000008081E0
:10041000886080832FEF80E792E0215080409040F9
:10042000E1F700C000006DE381E10E94950260E405
:1004300085E10E9495026DE381E10E94AC0260E4D7
:1004400085E10E94AC0284E10E94C302982F937060
:10045000933041F484E10E94D802982F9370933036
:1004600039F40895682F636084E10E949502F2CF09
:10047000682F636084E10E94AC02F3CFEAE0F1E010
:1004800080818F7D808380818F7E8083EBE0F1E0AF
:100490008081806280838081806180830895EAE02A
:1004A000F1E08081806480838081806880830E9405
:1004B000D0008AE80E948D000E94F00060E070E0A9
:1004C00080E090E00E940B0108953A9A3B9A42988E
:1004D0004398E1E8F0E080818460808380818D7FB3
:1004E000808380818E7F808308953C98449A08950C
:1004F0000E9482010E948F010E94C9010E943E0257
:100500000E944F020E9465020E947502789408952D
:100510000E9478023499FECF0E949C03FBCF8EBDCF
:100520000DB407FEFDCF8EB508951F93CF93DF93D3
:10053000162FCBE0D1E098819E7F9883880F8E772D
:100540000E948F02812F0E948F02888181608883A0
:10055000DF91CF911F9108951F93CF93DF93162FB3
:10056000CBE0D1E098819B7F9883880F8E770E94A3
:100570008F02812F0E948F02888184608883DF919F
:10058000CF911F910895CF93DF93CBE0D1E0988175
:100590009E7F9883880F8E7780680E948F0280E00C
:1005A0000E948F02988191609883DF91CF91089586
:1005B000CF93DF93CBE0D1E098819B7F9883880F26
:1005C0008E7780680E948F0280E00E948F0298815F
:1005D00094609883DF91CF910895CF93DF9360E08B
:1005E00081E00E9495026FE784E00E94950260E836
:1005F0008AE00E94950266E289E00E9495026CE022
:1006000081E00E94950267E88DE00E949502C8EEA5
:10061000D3E084E00E94C302807381110AC0219755
:1006200085E38A95F1F70000209799F780E090E044
:100630000DC080E090E0CD2B49F086E00E94C3021F
:10064000282F237181E090E0211180E0DF91CF918C
:100650000895CF93DF9360E081E00E94AC026FE7E2
:1006600084E00E94AC0260E88AE00E94AC0266E28C
:1006700089E00E94AC026CE081E00E94AC0267E875
:100680008DE00E94AC02C8EED3E084E00E94D80264
:10069000807381110AC0219785E38A95F1F70000E4
:1006A000209799F780E090E00DC080E090E0CD2B9E
:1006B00049F086E00E94D802282F237181E090E063
:1006C000211180E0DF91CF910895892B49F40E9498
:1006D000ED02AC0181E090E0452B51F480E00895FB
:1006E0000E942903AC0181E090E0452B09F480E0F1
:1006F0000895A29A08952FEF89E698E1215080404D
:100700009040E1F700C00000A29808951092850083
:100710001092840081E086BB429AB09BFECF429843
:100720000895109285001092840081E086BB439A60
:10073000B09BFECF439808958F929F92AF92BF9245
:10074000CF92DF92EF92FF920F931F93CF93DF939D
:10075000A19A3099A7C0E12CF12C00E010E0A12C67
:10076000B12CC12CD12CC9E0D1E088248394912CE8
:1007700072C00E94790380E090E00E946503892B9B
:10078000B9F02FEFA21AB20AB501C6010E940B01FF
:100790000E9491038FEF90E722E08150904020402B
:1007A000E1F700C000000E947B03082D192D5AC0FC
:1007B0008FEFC81AD80AB501C6010E940B010E942A
:1007C00086039FEF20E782E0915020408040E1F7D0
:1007D00000C00000E8CF0E947903882D992D0E9467
:1007E0006503892BB9F09FEFA91AB90AB501C601B3
:1007F0000E940B010E9491032FEF80E792E02150AD
:1008000080409040E1F700C000000E947B03E82C8C
:10081000F92C2FC02FEFC21AD20AB501C6010E94CF
:100820000B010E9486038FEF90E722E081509040F9
:100830002040E1F700C00000E8CF8FEF90E722E012
:10084000815090402040E1F700C0000000E010E03F
:1008500016C0309927C0888185FD04C00115110597
:1008600009F487CF888184FD04C0E114F10409F400
:10087000B2CF888185FF03C001301105F1F2888174
:1008800084FFE7CF81E0E816F10419F79FEF20E736
:1008900082E0915020408040E1F700C00000E12C50
:1008A000F12CD7CFDF91CF911F910F91FF90EF9057
:1008B000DF90CF90BF90AF909F908F900895A29FB0
:1008C000B001B39FC001A39F700D811D1124911D24
:1008D000B29F700D811D1124911D0895F894FFCFD2
:0A08E0003F065B4F666D7D077F6FDA
:00000001FF
