:100000000C9472000C940C030C948B000C948B00D9
:100010000C948B000C948B000C948B000C948B0034
:100020000C948B000C948B000C948B000C948B0024
:100030000C948B000C948B000C948B000C948B0014
:100040000C948B000C948B000C948B000C948B0004
:100050000C948B000C948B000C948B000C948B00F4
:100060000C948B000C948B000C948B000C948B00E4
:100070000C948B000C948B000C948B000C948B00D4
:100080000C948B000C948B000C948B000C948B00C4
:100090000C948B000C948B000C948B000C948B00B4
:1000A0000C948B000C948B000C948B000C948B00A4
:1000B0000C948B000C948B000C948B000C948B0094
:1000C0000C948B000C948B000C948B000C948B0084
:1000D0000C948B000C948B000C948B000C948B0074
:1000E0000C948B0011241FBECFEFD1E2DEBFCDBF39
:1000F00000E00CBF12E0A0E0B2E0ECE4F6E000E0CB
:100100000BBF02C007900D92AA30B107D9F70E9429
:1001100087010C9424030C940000989A999A9A9A57
:10012000579838985098A098A098A2985F9A409AAB
:10013000589A0895EAE0F1E08081816080838081AF
:1001400084608083219A229A2398808182608083B0
:10015000808188608083EBE0F1E080818160808332
:1001600080818460808380818260808380818860D8
:1001700080838CB580648CBD8CB58F7D8CBD8CB537
:1001800080618CBD8CB5877F8CBD8CB58B7F8CBD21
:100190008CB58D7F8CBD8CB58E7F8CBD8DB58E7FE3
:1001A0008DBD0895EAE0F1E080818F7D80838081BC
:1001B0008F7E8083EBE0F1E08081806280838081AC
:1001C00080618083089528E0EBE0F1E016C0908123
:1001D0009F779083A7ECB0E01197F1F700C0000083
:1001E000908190649083A7ECB0E01197F1F700C084
:1001F000000086952150222349F090819F7B9083B7
:1002000080FFE5CF908190689083E4CFEBE0F1E050
:1002100080818F7B8083AAE0B1E08C918F778C9373
:1002200087EC90E00197F1F700C0000080818064C6
:10023000808387EC90E00197F1F700C00000808197
:100240008F7B80838C9180688C930895EAE0F1E045
:10025000808180688083EBE0F1E08081806880832A
:1002600080818064808387EC90E00197F1F700C083
:10027000000080818F77808387EC90E00197F1F711
:1002800000C0000080818F7B80830895EBE0F1E067
:1002900080818F7B808380818F77808387EC90E063
:1002A0000197F1F700C0000080818064808387ECB3
:1002B00090E00197F1F700C00000808180688083A2
:1002C0000895EAE0F1E08081806480838081806825
:1002D00080830E9426018AE80E94E3000E94460172
:1002E00008953A9A3B9A4298439808953C98449AC4
:1002F00008950E948D000E949A000E94D2000E94E0
:1003000061010E9471010E947601789408950E9413
:1003100079013299FECF0E941203FBCF8EBD0DB43E
:1003200007FEFDCF8EB508951F93CF93DF93162F51
:10033000CBE0D1E098819E7F9883880F8E770E94D2
:100340008E01812F0E948E01888181608883DF91D8
:10035000CF911F910895CF93DF93CBE0D1E09881A7
:100360009E7F9883880F8E7780680E948E0180E040
:100370000E948E01988191609883DF91CF910895BA
:100380001F93CF93DF93162FCBE0D1E098819B7F13
:100390009883880F8E770E948E01812F0E948E0194
:1003A000888184608883DF91CF911F910895CF93D6
:1003B000DF93CBE0D1E098819B7F9883880F8E7785
:1003C00080680E948E0180E00E948E019881946076
:1003D0009883DF91CF910895EBE0F1E08081826016
:1003E00080832FEF80E792E0215080409040E1F73A
:1003F00000C0000080818D7F80832FEF80E792E036
:10040000215080409040E1F700C000008081826070
:1004100080832FEF80E792E0215080409040E1F709
:1004200000C000008081886080832FEF80E792E029
:10043000215080409040E1F700C000008081877F1C
:1004400080832FEF80E792E0215080409040E1F7D9
:1004500000C000008081886080832FEF80E792E0F9
:10046000215080409040E1F700C000006DE381E141
:100470000E94940160E485E10E9494016DE381E1B2
:100480000E94C00160E485E10E94C00184E10E94F5
:10049000AB01982F9370933041F484E10E94D7010F
:1004A000982F9370933039F40895682F636084E136
:1004B0000E949401F2CF682F636084E10E94C00122
:1004C000F3CFCF93DF9360E081E00E9494016FE768
:1004D00084E00E94940160E88AE00E94940166E250
:1004E00089E00E9494016CE081E00E94940167E839
:1004F0008DE00E949401C8EED3E084E00E94AB013D
:10050000807381110AC0219785E38A95F1F7000075
:10051000209799F780E090E00DC080E090E0CD2B2F
:1005200049F086E00E94AB01282F237181E090E022
:10053000211180E0DF91CF910895CF93DF9360E0A8
:1005400081E00E94C0016FE784E00E94C00160E882
:100550008AE00E94C00166E289E00E94C0016CE06E
:1005600081E00E94C00167E88DE00E94C001C8EEF2
:10057000D3E084E00E94D701807381110AC02197E3
:1005800085E38A95F1F70000209799F780E090E0E5
:100590000DC080E090E0CD2B49F086E00E94D701AD
:1005A000282F237181E090E0211180E0DF91CF912D
:1005B00008950E949A000E94EC01C0E0D0E001E0A2
:1005C00010E006C0E90104C0C130D105D9F342985A
:1005D0000E946102282F392F21153105A9F3429A73
:1005E0002FEF81EE94E0215080409040E1F700C071
:1005F0000000C02FD12FECCF0AC0429A2FEF84E326
:100600009CE0215080409040E1F700C000000E9433
:100610006102892BE1F3F1CFA1981895A19A089571
:10062000A19A08950E94D9020E940E03C9E0D1E068
:1006300002C00E94100386B1888182FFFACF8881B0
:0C06400085708111F8CFF5CFF894FFCF42
:0A064C003F065B4F666D7D077F6F70
:00000001FF
