:100000000C9472000C942C040C948B000C948B00B8
:100010000C948B000C948B000C948B000C948B0034
:100020000C948B000C948B000C948B000C948B0024
:100030000C948B000C948B000C948B000C948B0014
:100040000C948B000C948B000C948B000C948B0004
:100050000C948B000C948B000C948B000C948B00F4
:100060000C948B000C948B000C948B000C948B00E4
:100070000C948B000C948B000C948B000C948B00D4
:100080000C948B000C948B000C948B000C94170434
:100090000C948B000C948B000C948B000C948B00B4
:1000A0000C948B000C948B000C948B000C948B00A4
:1000B0000C948B000C948B000C948B000C948B0094
:1000C0000C948B000C948B000C948B000C948B0084
:1000D0000C948B000C948B000C948B000C948B0074
:1000E0000C948B0011241FBECFEFD1E2DEBFCDBF39
:1000F00000E00CBF12E0A0E0B2E0ECE7FAE000E0C4
:100100000BBF02C007900D92AA30B107D9F70E9429
:100110000F020C943C050C94000028E0EBE0F1E0A9
:1001200016C090819F779083A7ECB0E01197F1F70C
:1001300000C00000908190649083A7ECB0E011971C
:10014000F1F700C0000086952150222349F09081EC
:100150009F7B908380FFE5CF908190689083E4CF70
:10016000EBE0F1E080818F7B8083AAE0B1E08C91AD
:100170008F778C9387EC90E00197F1F700C0000037
:1001800080818064808387EC90E00197F1F700C064
:10019000000080818F7B80838C9180688C93089590
:1001A000EAE0F1E0808180688083EBE0F1E080812B
:1001B0008068808380818064808387EC90E00197F1
:1001C000F1F700C0000080818F77808387EC90E09A
:1001D0000197F1F700C0000080818F7B8083089534
:1001E000EBE0F1E080818F7B808380818F7780835B
:1001F00087EC90E00197F1F700C0000080818064F7
:10020000808387EC90E00197F1F700C000008081C7
:10021000806880830895BF92CF92DF92EF92FF9221
:100220000F931F93CF93DF93082F192FC62FD72F2C
:100230009801ADECBCEC0E942D056C01D694C794DE
:10024000D694C794D694C794C601880F991F880F77
:10025000991F8C0D9D1D880F991F081B190B9E015E
:100260000E942D057C01F694E794F694E794F694A9
:10027000E794BE2CC701880F991F880F991F8E0D18
:100280009F1D880F991FC81BD90B0E94D00080E4C6
:100290000E948D000E94F0000E94D00080EC0E941D
:1002A0008D00C1101FC080E00E948D00F801E05059
:1002B000FE4F80810E948D00B1101CC080E00E9422
:1002C0008D00C050DE4F88810E948D000E94F0009A
:1002D000DF91CF911F910F91FF90EF90DF90CF9022
:1002E000BF900895F601FF27E050FE4F80810E94E5
:1002F0008D00DCCFF701FF27E050FE4F80810E9488
:100300008D00DFCF989A999A9A9A57983898509872
:10031000A098A098A2985F9A409A589A0895EAE007
:10032000F1E0808181608083808184608083219A74
:10033000229A239880818260808380818860808374
:10034000EBE0F1E080818160808380818460808344
:100350008081826080838081886080838CB58064A6
:100360008CBD8CB58F7D8CBD8CB580618CBD8CB502
:10037000877F8CBD8CB58B7F8CBD8CB58D7F8CBD04
:100380008CB58E7F8CBD8DB58E7F8DBD0895EAE0D6
:10039000F1E080818F7D808380818F7E8083EBE0A0
:1003A000F1E0808180628083808180618083089514
:1003B000EAE0F1E0808180648083808180688083CE
:1003C0000E94D0008AE80E948D000E94F00060E048
:1003D00070E080E090E00E940B0108953A9A3B9A09
:1003E00042984398E1E8F0E08081846080838081D6
:1003F0008D7F808380818E7F808308953C98449A8E
:1004000008950E9482010E948F010E94C7010E94EC
:10041000D8010E94EE010E94FE01789408950E9486
:1004200001020E94E604FFCF8EBD0DB407FEFDCF92
:100430008EB508951F93CF93DF93162FCBE0D1E0B5
:1004400098819E7F9883880F8E770E941402812F57
:100450000E941402888181608883DF91CF911F916F
:100460000895CF93DF93CBE0D1E098819E7F98836E
:10047000880F8E7780680E94140280E00E94140228
:10048000988191609883DF91CF9108951F93CF93C6
:10049000DF93162FCBE0D1E098819B7F9883880F64
:1004A0008E770E941402812F0E941402888184603A
:1004B0008883DF91CF911F910895CF93DF93CBE095
:1004C000D1E098819B7F9883880F8E7780680E9407
:1004D000140280E00E941402988194609883DF9156
:1004E000CF91089598B188E0982798B92FEF39E611
:1004F00098E1215030409040E1F700C0000098B1F1
:10050000982798B92FEF39E698E121503040904074
:10051000E1F700C0000098B1982798B92FEF39E6AD
:1005200098E1215030409040E1F700C0000098B1C0
:10053000892788B92FEF39E688E121503040804083
:10054000E1F700C00000EBE0F1E080818260808391
:100550009FEF20E732E0915020403040E1F700C0AB
:10056000000080818D7F80838FEF90E722E08150B3
:1005700090402040E1F700C00000808182608083CD
:100580003FEF80E792E0315080409040E1F700C0BB
:1005900000008081886080832FEF30E782E0215067
:1005A00030408040E1F700C000008081877F808379
:1005B0009FEF20E732E0915020403040E1F700C04B
:1005C00000008081886080838FEF90E722E0815077
:1005D00090402040E1F700C000006DE381E10E94FF
:1005E0001A0260E485E10E941A026DE381E10E9433
:1005F000460260E485E10E94460284E10E943102E5
:10060000982F9370933041F484E10E945D02982FFB
:100610009370933039F40895682F636084E10E94E9
:100620001A02F2CF682F636084E10E944602F3CF82
:10063000CF93DF9398B188E0982798B92FEF39E6E8
:1006400098E1215030409040E1F700C0000098B19F
:10065000982798B92FEF39E698E121503040904023
:10066000E1F700C0000098B1982798B92FEF39E65C
:1006700098E1215030409040E1F700C0000098B16F
:10068000892788B92FEF39E688E121503040804032
:10069000E1F700C0000060E081E00E941A026FE70D
:1006A00084E00E941A0260E88AE00E941A0266E270
:1006B00089E00E941A026CE081E00E941A0267E859
:1006C0008DE00E941A02C8EED3E084E00E9431025D
:1006D0008073811109C0219795E39A95F1F7000085
:1006E000209799F790E00DC080E090E0CD2B49F085
:1006F00086E00E943102282F237181E090E02111D1
:1007000080E0DF91CF910895CF93DF9360E081E0A7
:100710000E9446026FE784E00E94460260E88AE099
:100720000E94460266E289E00E9446026CE081E097
:100730000E94460267E88DE00E944602C8EED3E0C0
:1007400084E00E945D02807381110AC0219785E3D5
:100750008A95F1F70000209799F780E090E00DC0AE
:1007600080E090E0CD2B49F086E00E945D02282FCA
:10077000237181E090E0211180E0DF91CF91089515
:100780000E948F010E9472020895282F392F98B17C
:1007900088E0982798B94FEF54E39CE041505040CF
:1007A0009040E1F700C0000098B1982798B94FEF4A
:1007B00054E39CE0415050409040E1F700C00000FD
:1007C00098B1982798B94FEF54E39CE041505040BE
:1007D0009040E1F700C0000098B1892788B94FEF39
:1007E00054E38CE0415050408040E1F700C00000ED
:1007F000232B49F40E941803AC0181E090E0452BC3
:1008000051F480E008950E948403AC0181E090E0FF
:10081000452B09F480E00895A29A10929500109259
:100820009400E1E7F0E080818160808308958F93F8
:100830008FB78F938BB78F93EF93FF93A298E1E7D6
:10084000F0E080818E7F8083FF91EF918F918BBF4D
:100850008F918FBF8F911895A1981895A19A08959F
:10086000A19A0895109285001092840081E086BBC1
:10087000429AB09BFECF4298089510928500109244
:10088000840081E086BB439AB09BFECF43980895D5
:10089000AF92BF92CF92DF92EF92FF920F931F938E
:1008A000CF93DF930E94C0030E942E04309981C031
:1008B000A12CB12C00E010E0C12CD12CE12CF12CAA
:1008C000C9E0D1E050C00E94300480E090E00E9476
:1008D000C503892B61F02FEFC21AD20AB601C701F6
:1008E0000E940B010E943D0401E010E043C08FEF25
:1008F000E81AF80AB601C7010E940B010E943204EF
:1009000001E010E037C00E94300481E090E00E94D6
:10091000C503892B69F09FEFC91AD90AB601C7012F
:100920000E940B010E943D04AA24A394B12C28C06C
:100930002FEFE21AF20AB601C7010E940B010E94D2
:100940003204AA24A394B12C1BC08FEF90E722E0BD
:10095000815090402040E1F700C0000000E010E02E
:1009600015C0309926C0888185FD04C00115110588
:1009700009F4A9CF888184FD03C0A114B10419F240
:10098000888185FF03C001301105F9F2888184FF59
:10099000E8CF81E0A816B10421F79FEF20E782E0BD
:1009A000915020408040E1F700C00000A12CB12C04
:1009B000D8CF0E940C04DF91CF911F910F91FF902F
:1009C000EF90DF90CF90BF90AF9008950E94C0034A
:1009D000E12CF12C00E010E027C021153105D9F001
:1009E000EF2809F44398EE24E394F12CCD2BE1F4A5
:1009F000EE24E394F12C01301105B1F47801439A0F
:100A000000E010E02115310579F4890109C0439A0D
:100A1000E12CF12C09C0CD2B19F40130110579F32B
:100A200081E0E816F10499F380E090E00E94C503AC
:100A3000C82FD92F81E090E00E94C503282F392FBD
:100A4000209759F2012B09F4439801E010E0211599
:100A5000310531F301E010E0C3CFA29FB001B39F95
:100A6000C001A39F700D811D1124911DB29F700DB7
:0C0A7000811D1124911D0895F894FFCF02
:0A0A7C003F065B4F666D7D077F6F3C
:00000001FF
