:100000000C9472000C948B000C948B000C948B005D
:100010000C948B000C948B000C948B000C948B0034
:100020000C948B000C948B000C948B000C948B0024
:100030000C948B000C948B000C948B000C948B0014
:100040000C948B000C948B000C948B000C948B0004
:100050000C948B000C948B000C948B000C948B00F4
:100060000C948B000C948B000C948B000C948B00E4
:100070000C948B000C948B000C948B000C948B00D4
:100080000C948B000C948B000C948B000C948B00C4
:100090000C948B000C948B000C948B000C948B00B4
:1000A0000C948B000C948B000C948B000C948B00A4
:1000B0000C948B000C948B000C948B000C948B0094
:1000C0000C948B000C948B000C948B000C948B0084
:1000D0000C948B000C948B000C948B000C948B0074
:1000E0000C948B0011241FBECFEFD1E2DEBFCDBF39
:1000F00000E00CBF12E0A0E0B2E0EEEFF2E000E0C2
:100100000BBF02C007900D92AA30B107D9F70E9429
:100110007A010C947D010C9400009A9A579A389AAF
:1001200039983A983B98A2985A9840980895EAE0EE
:10013000F1E0808181608083808184608083219A66
:10014000229A239880818260808380818860808366
:10015000EBE0F1E080818160808380818460808336
:100160008081826080838081886080838CB5806498
:100170008CBD8CB58F7D8CBD8CB580618CBD8CB5F4
:10018000877F8CBD8CB58B7F8CBD8CB58D7F8CBDF6
:100190008CB58E7F8CBD8DB58E7F8DBD0895EAE0C8
:1001A000F1E080818F7E808380818F7D80830895C0
:1001B00028E0EBE0F1E016C090819F779083A7ECF8
:1001C000B0E01197F1F700C0000090819064908337
:1001D000A7ECB0E01197F1F700C000008695215020
:1001E000222349F090819F7B908380FFE5CF90810F
:1001F00090689083E4CFEBE0F1E080818F7B808397
:10020000AAE0B1E08C918F778C9387EC90E0019716
:10021000F1F700C0000080818064808387EC90E06B
:100220000197F1F700C0000080818F7B80838C9163
:1002300080688C930895EAE0F1E080818068808393
:10024000EBE0F1E08081806880838081806480833E
:1002500087EC90E00197F1F700C0000080818F7774
:10026000808387EC90E00197F1F700C00000808167
:100270008F7B80830895EBE0F1E080818F7B80832A
:1002800080818F77808387EC90E00197F1F700C041
:10029000000080818064808387EC90E00197F1F713
:1002A00000C000008081806880830895EAE0F1E06A
:1002B0008081806480838081806880830E941B01AC
:1002C0008AE80E94D8000E943B010895989A999A62
:1002D000A098A19808953C9808950E948D000E94CE
:1002E00097000E94CF000E9456010E9466010E9462
:0E02F0006B0108950E946D01FFCFF894FFCFBF
:0A02FE003F065B4F666D7D077F6FC2
:00000001FF
