:100000000C9472000C9482010C948B000C948B0065
:100010000C948B000C948B000C948B000C948B0034
:100020000C948B000C948B000C948B000C948B0024
:100030000C948B000C948B000C948B000C948B0014
:100040000C948B000C948B000C948B000C948B0004
:100050000C948B000C948B000C948B000C948B00F4
:100060000C948B000C948B000C948B000C948B00E4
:100070000C948B000C948B000C948B000C948B00D4
:100080000C948B000C948B000C948B000C94D30379
:100090000C948B000C948B000C948B000C948B00B4
:1000A0000C948B000C948B000C948B000C948B00A4
:1000B0000C948B000C948B000C948B000C948B0094
:1000C0000C948B000C948B000C948B000C948B0084
:1000D0000C948B000C948B000C948B000C948B0074
:1000E0000C948B0011241FBECFEFD1E2DEBFCDBF39
:1000F00000E00CBF12E0A0E0B2E0E2E7FBE000E0CD
:100100000BBF02C007900D92AC30B107D9F70E9427
:1001100039020C94B7050C94000028E0EBE0F1E004
:1001200016C090819F779083A7ECB0E01197F1F70C
:1001300000C00000908190649083A7ECB0E011971C
:10014000F1F700C0000086952150222349F09081EC
:100150009F7B908380FFE5CF908190689083E4CF70
:10016000EBE0F1E080818F7B8083AAE0B1E08C91AD
:100170008F778C9387EC90E00197F1F700C0000037
:1001800080818064808387EC90E00197F1F700C064
:10019000000080818F7B80838C9180688C93089590
:1001A000EAE0F1E0808180688083EBE0F1E080812B
:1001B0008068808380818064808387EC90E00197F1
:1001C000F1F700C0000080818F77808387EC90E09A
:1001D0000197F1F700C0000080818F7B8083089534
:1001E000EBE0F1E080818F7B808380818F7780835B
:1001F00087EC90E00197F1F700C0000080818064F7
:10020000808387EC90E00197F1F700C000008081C7
:10021000806880830895BF92CF92DF92EF92FF9221
:100220000F931F93CF93DF93082F192FC62FD72F2C
:100230009801ADECBCEC0E94A8056C01D694C79463
:10024000D694C794D694C794C601880F991F880F77
:10025000991F8C0D9D1D880F991F081B190B9E015E
:100260000E94A8057C01F694E794F694E794F6942E
:10027000E794BE2CC701880F991F880F991F8E0D18
:100280009F1D880F991FC81BD90B0E94D00080E4C6
:100290000E948D000E94F0000E94D00080EC0E941D
:1002A0008D00C1101FC080E00E948D00F801EE5F3C
:1002B000FD4F80810E948D00B1101CC080E00E9423
:1002C0008D00CE5FDD4F88810E948D000E94F0007E
:1002D000DF91CF911F910F91FF90EF90DF90CF9022
:1002E000BF900895F601FF27EE5FFD4F80810E94C9
:1002F0008D00DCCFF701FF27EE5FFD4F80810E946C
:100300008D00DFCF2F932FB72F938F939F93A198BB
:100310002F982FEF89E698E1215080409040E1F737
:1003200000C000002F9A9F918F912F912FBF2F9186
:100330001895989A999A9A9A579838985098A09898
:10034000A098A2985F9A409A589AE89AE9E6F0E055
:10035000808183608083E1E9F0E080818B7F80830E
:1003600080818260808380818E7F80830895209A3F
:10037000289AEAE0F1E08081816080838081846056
:100380008083219A229A2398808182608083808151
:1003900088608083EBE0F1E08081816080838081F0
:1003A0008460808380818260808380818860808394
:1003B0008CB580648CBD8CB58F7D8CBD8CB5806117
:1003C0008CBD8CB5877F8CBD8CB58B7F8CBD8CB57F
:1003D0008D7F8CBD8CB58E7F8CBD8DB58E7F8DBD98
:1003E0000895EAE0F1E080818F7D808380818F7EB7
:1003F0008083EBE0F1E08081806280838081806196
:1004000080830895EAE0F1E08081806480838081C8
:10041000806880830E94D0008AE80E948D000E943C
:10042000F00060E070E080E090E00E940B01089531
:100430003A9A3B9A42984398E1E8F0E080818460E0
:10044000808380818D7F808380818E7F80830895EB
:100450003C98449A08950E9499010E94B7010E9415
:10046000F1010E9402020E9418020E942802789460
:1004700008950E942B023299FECF0E940204FBCF06
:100480008EBD0DB407FEFDCF8EB508951F93CF939B
:10049000DF93162FCBE0D1E098819E7F9883880F61
:1004A0008E770E944002812F0E94400288818160E5
:1004B0008883DF91CF911F910895CF93DF93CBE095
:1004C000D1E098819E7F9883880F8E7780680E9404
:1004D000400280E00E944002988191609883DF9101
:1004E000CF9108951F93CF93DF93162FCBE0D1E0E8
:1004F00098819B7F9883880F8E770E944002812F7E
:100500000E944002888184608883DF91CF911F918F
:100510000895CF93DF93CBE0D1E098819B7F9883C0
:10052000880F8E7780680E94400280E00E9440021F
:10053000988194609883DF91CF910895EBE0F1E08A
:100540008081826080832FEF80E792E0215080409D
:100550009040E1F700C0000080818D7F80832FEF05
:1005600080E792E0215080409040E1F700C0000019
:100570008081826080832FEF80E792E0215080406D
:100580009040E1F700C000008081886080832FEFF9
:1005900080E792E0215080409040E1F700C00000E9
:1005A0008081877F80832FEF80E792E02150804019
:1005B0009040E1F700C000008081886080832FEFC9
:1005C00080E792E0215080409040E1F700C00000B9
:1005D0006DE381E10E94460260E485E10E944602EB
:1005E0006DE381E10E94720260E485E10E94720283
:1005F00084E10E945D02982F9370933041F484E16E
:100600000E948902982F9370933039F40895682FCF
:10061000636084E10E944602F2CF682F636084E148
:100620000E947202F3CFCF93DF9360E081E00E94DB
:1006300046026FE784E00E94460260E88AE00E947A
:10064000460266E289E00E9446026CE081E00E9478
:10065000460267E88DE00E944602C8EED3E084E0DF
:100660000E945D02807381110AC0219785E38A95FB
:10067000F1F70000209799F780E090E00DC080E04E
:1006800090E0CD2B49F086E00E945D02282F237177
:1006900081E090E0211180E0DF91CF910895CF9328
:1006A000DF9360E081E00E9472026FE784E00E94C5
:1006B000720260E88AE00E94720266E289E00E94AB
:1006C00072026CE081E00E94720267E88DE00E9495
:1006D0007202C8EED3E084E00E9489028073811127
:1006E0000AC0219785E38A95F1F70000209799F7D2
:1006F00080E090E00DC080E090E0CD2B49F086E0F6
:100700000E948902282F237181E090E0211180E06E
:10071000DF91CF9108950E94B7010E949E02089533
:10072000892BD1F40E941303009761F02FEF31EE73
:1007300044E0215030404040E1F700C0000081E03B
:1007400090E008952FEF31EE44E0215030404040DA
:10075000E1F700C0000008950E944F03009761F088
:100760008FEF91EE24E0815090402040E1F700C0EF
:10077000000081E090E008953FEF41EE24E0315029
:1007800040402040E1F700C000000895A29A109276
:1007900095001092940081E088BBE1E7F0E0808151
:1007A0008160808308958F938FB78F938BB78F93DA
:1007B000EF93FF93A298E1E7F0E080818E7F808342
:1007C000FF91EF918F918BBF8F918FBF8F91189574
:1007D000A19A0895A19A089510928500109284001C
:1007E00081E086BB429AB09BFECF4298089510925A
:1007F00085001092840081E086BB439AB09BFECFB7
:1008000043980895AF92BF92CF92DF92EF92FF92FA
:100810000F931F93CF93DF930E948B030E94E803F3
:10082000309981C0A12CB12C00E010E0C12CD12C5A
:10083000E12CF12CC9E0D1E050C00E94EA0380E035
:1008400090E00E949003892B61F02FEFC21AD20A28
:10085000B601C7010E940B010E94F70301E010E0FE
:1008600043C08FEFE81AF80AB601C7010E940B01D6
:100870000E94EC0301E010E037C00E94EA0381E02F
:1008800090E00E949003892B69F09FEFC91AD90A62
:10089000B601C7010E940B010E94F703AA24A3948A
:1008A000B12C28C02FEFE21AF20AB601C7010E944C
:1008B0000B010E94EC03AA24A394B12C1BC08FEF60
:1008C00090E722E0815090402040E1F700C0000016
:1008D00000E010E015C0309926C0888185FD04C075
:1008E0000115110509F4A9CF888184FD03C0A11465
:1008F000B10419F2888185FF03C001301105F9F2B6
:10090000888184FFE8CF81E0A816B10421F79FEF2A
:1009100020E782E0915020408040E1F700C00000D5
:10092000A12CB12CD8CF0E94C603DF91CF911F918B
:100930000F91FF90EF90DF90CF90BF90AF90089510
:10094000279A269A2F9A2E9A8198829883980895AA
:10095000799BA19A0895309B06C0809100029091E6
:100960000102019781F030990DC0809100029091B1
:100970000102892B39F42F9A81E090E090930102D3
:100980008093000208952F982FEF83ED90E321507C
:1009900080409040E1F700C000000E94C603109222
:1009A0000102109200020895EAE0F1E080818F7E5A
:1009B0008083E9E0F1E001C0439A808184FFFCCFAD
:1009C0004398FBCFEAE0F1E080818F7E8083E1E015
:1009D000F1E0808188608083E2E0F1E08081877FC0
:1009E000808300E010E0C2E0D1E00F2EF9E0EF2EAE
:1009F000FF24F394F02D17C08BE296E00197F1F7F6
:100A000000C00000808184FF1DC043988881877FDB
:100A100088838FEA94E00197F1F700C00000B801E5
:100A2000C8010E940B0188818860888387E493E075
:100A30000197F1F700C00000F701808184FFDCCF4F
:100A40004398E4CF0F5F1F4F439AE0CF0E948B0380
:100A5000A12CB12C00E010E0C12CD12CE12CF12C08
:100A6000C9E0D1E088248394912C47C00E94EA0316
:100A700080E090E00E949003892B61F02FEFC21A72
:100A8000D20AB601C7010E940B010E94F703082D8C
:100A9000192D3AC08FEFE81AF80AB601C7010E9473
:100AA0000B010E94EC03082D192D2EC00E94EA03B1
:100AB000882D992D0E949003892B61F09FEFC91A10
:100AC000D90AB601C7010E940B010E94F703A82CA6
:100AD000B92C20C02FEFE21AF20AB601C7010E941A
:100AE0000B010E94EC03A82CB92C14C0888184FF50
:100AF00004C081E0A816B104F9F0888185FD04C026
:100B00000115110509F4B2CF888184FD03C0A11439
:100B1000B10461F2888185FFE9CF0130110531F719
:100B20008FEF90E722E0815090402040E1F700C035
:100B3000000000E010E0DACF9FEF20E782E0915064
:100B400020408040E1F700C00000A12CB12CD5CF9F
:100B5000A29FB001B39FC001A39F700D811D1124FE
:100B6000911DB29F700D811D1124911D0895F8945F
:020B7000FFCFB5
:0C0B720001003F065B4F666D7D077F6F42
:00000001FF
