:100000000C9472000C94B8030C948B000C948B002D
:100010000C948B000C948B000C948B000C948B0034
:100020000C948B000C948B000C948B000C948B0024
:100030000C948B000C948B000C948B000C948B0014
:100040000C948B000C948B000C948B000C948B0004
:100050000C948B000C948B000C948B000C948B00F4
:100060000C948B000C948B000C948B000C948B00E4
:100070000C948B000C948B000C948B000C948B00D4
:100080000C948B000C948B000C948B000C94A303A9
:100090000C948B000C948B000C948B000C948B00B4
:1000A0000C948B000C948B000C948B000C948B00A4
:1000B0000C948B000C948B000C948B000C948B0094
:1000C0000C948B000C948B000C948B000C948B0084
:1000D0000C948B000C948B000C948B000C948B0074
:1000E0000C948B0011241FBECFEFD1E2DEBFCDBF39
:1000F00000E00CBF12E0A0E0B2E0EEEFF8E000E0BC
:100100000BBF02C007900D92AA30B107D9F70E9429
:100110000F020C947D040C94000028E0EBE0F1E069
:1001200016C090819F779083A7ECB0E01197F1F70C
:1001300000C00000908190649083A7ECB0E011971C
:10014000F1F700C0000086952150222349F09081EC
:100150009F7B908380FFE5CF908190689083E4CF70
:10016000EBE0F1E080818F7B8083AAE0B1E08C91AD
:100170008F778C9387EC90E00197F1F700C0000037
:1001800080818064808387EC90E00197F1F700C064
:10019000000080818F7B80838C9180688C93089590
:1001A000EAE0F1E0808180688083EBE0F1E080812B
:1001B0008068808380818064808387EC90E00197F1
:1001C000F1F700C0000080818F77808387EC90E09A
:1001D0000197F1F700C0000080818F7B8083089534
:1001E000EBE0F1E080818F7B808380818F7780835B
:1001F00087EC90E00197F1F700C0000080818064F7
:10020000808387EC90E00197F1F700C000008081C7
:10021000806880830895BF92CF92DF92EF92FF9221
:100220000F931F93CF93DF93082F192FC62FD72F2C
:100230009801ADECBCEC0E946E046C01D694C7949E
:10024000D694C794D694C794C601880F991F880F77
:10025000991F8C0D9D1D880F991F081B190B9E015E
:100260000E946E047C01F694E794F694E794F69469
:10027000E794BE2CC701880F991F880F991F8E0D18
:100280009F1D880F991FC81BD90B0E94D00080E4C6
:100290000E948D000E94F0000E94D00080EC0E941D
:1002A0008D00C1101FC080E00E948D00F801E05059
:1002B000FE4F80810E948D00B1101CC080E00E9422
:1002C0008D00C050DE4F88810E948D000E94F0009A
:1002D000DF91CF911F910F91FF90EF90DF90CF9022
:1002E000BF900895F601FF27E050FE4F80810E94E5
:1002F0008D00DCCFF701FF27E050FE4F80810E9488
:100300008D00DFCF989A999A9A9A57983898509872
:10031000A098A098A2985F9A409A589A0895EAE007
:10032000F1E0808181608083808184608083219A74
:10033000229A239880818260808380818860808374
:10034000EBE0F1E080818160808380818460808344
:100350008081826080838081886080838CB58064A6
:100360008CBD8CB58F7D8CBD8CB580618CBD8CB502
:10037000877F8CBD8CB58B7F8CBD8CB58D7F8CBD04
:100380008CB58E7F8CBD8DB58E7F8DBD0895EAE0D6
:10039000F1E080818F7D808380818F7E8083EBE0A0
:1003A000F1E0808180628083808180618083089514
:1003B000EAE0F1E0808180648083808180688083CE
:1003C0000E94D0008AE80E948D000E94F00060E048
:1003D00070E080E090E00E940B0108953A9A3B9A09
:1003E00042984398E1E8F0E08081846080838081D6
:1003F0008D7F808380818E7F808308953C98449A8E
:1004000008950E9482010E948F010E94C7010E94EC
:10041000D8010E94EE010E94FE01789408950E9486
:1004200001023299FECF0E94D003FBCF8EBD0DB4E6
:1004300007FEFDCF8EB508951F93CF93DF93162F40
:10044000CBE0D1E098819E7F9883880F8E770E94C1
:100450001602812F0E941602888181608883DF91B5
:10046000CF911F910895CF93DF93CBE0D1E0988196
:100470009E7F9883880F8E7780680E94160280E0A6
:100480000E941602988191609883DF91CF91089520
:100490001F93CF93DF93162FCBE0D1E098819B7F02
:1004A0009883880F8E770E941602812F0E94160271
:1004B000888184608883DF91CF911F910895CF93C5
:1004C000DF93CBE0D1E098819B7F9883880F8E7774
:1004D00080680E94160280E00E9416029881946053
:1004E0009883DF91CF910895EBE0F1E08081826005
:1004F00080832FEF80E792E0215080409040E1F729
:1005000000C0000080818D7F80832FEF80E792E024
:10051000215080409040E1F700C00000808182605F
:1005200080832FEF80E792E0215080409040E1F7F8
:1005300000C000008081886080832FEF80E792E018
:10054000215080409040E1F700C000008081877F0B
:1005500080832FEF80E792E0215080409040E1F7C8
:1005600000C000008081886080832FEF80E792E0E8
:10057000215080409040E1F700C000006DE381E130
:100580000E941C0260E485E10E941C026DE381E18F
:100590000E94480260E485E10E94480284E10E94D2
:1005A0003302982F9370933041F484E10E945F02EC
:1005B000982F9370933039F40895682F636084E125
:1005C0000E941C02F2CF682F636084E10E944802FF
:1005D000F3CFCF93DF9360E081E00E941C026FE7CE
:1005E00084E00E941C0260E88AE00E941C0266E22D
:1005F00089E00E941C026CE081E00E941C0267E816
:100600008DE00E941C02C8EED3E084E00E94330219
:10061000807381110AC0219785E38A95F1F7000064
:10062000209799F780E090E00DC080E090E0CD2B1E
:1006300049F086E00E943302282F237181E090E088
:10064000211180E0DF91CF910895CF93DF9360E097
:1006500081E00E9448026FE784E00E94480260E85F
:100660008AE00E94480266E289E00E9448026CE04B
:1006700081E00E94480267E88DE00E944802C8EECF
:10068000D3E084E00E945F02807381110AC0219749
:1006900085E38A95F1F70000209799F780E090E0D4
:1006A0000DC080E090E0CD2B49F086E00E945F0213
:1006B000282F237181E090E0211180E0DF91CF911C
:1006C00008950E948F010E947402C0E0D0E001E012
:1006D00010E006C0E90104C0C130D105D9F3429849
:1006E0000E94E902282F392F21153105A9F3429ADA
:1006F0002FEF81EE94E0215080409040E1F700C060
:100700000000C02FD12FECCF892B49F40E94E902C1
:10071000AC0181E090E0452B51F480E008950E9407
:100720002503AC0181E090E0452B09F480E00895B9
:10073000A29A1092950010929400E1E7F0E0808177
:100740008160808308958F938FB78F938BB78F933A
:10075000EF93FF93A298E1E7F0E080818E7F8083A2
:10076000FF91EF918F918BBF8F918FBF8F911895D4
:10077000A1981895A19A0895A19A089510928500BC
:1007800010928400429AB09BFECF42980895109236
:10079000850010928400439AB09BFECF4398089541
:1007A000AF92BF92CF92DF92EF92FF920F931F937F
:1007B000CF93DF930E9461030E94BA03309981C0F6
:1007C000A12CB12C00E010E0C12CD12CE12CF12C9B
:1007D000C9E0D1E050C00E94BC0380E090E00E94DC
:1007E0008403892B61F02FEFC21AD20AB601C70128
:1007F0000E940B010E94C70301E010E043C08FEF8D
:10080000E81AF80AB601C7010E940B010E94BE0354
:1008100001E010E037C00E94BC0381E090E00E943C
:100820008403892B69F09FEFC91AD90AB601C70161
:100830000E940B010E94C703AA24A394B12C28C0D4
:100840002FEFE21AF20AB601C7010E940B010E94C3
:10085000BE03AA24A394B12C1BC08FEF90E722E023
:10086000815090402040E1F700C0000000E010E01F
:1008700015C0309926C0888185FD04C00115110579
:1008800009F4A9CF888184FD03C0A114B10419F231
:10089000888185FF03C001301105F9F2888184FF4A
:1008A000E8CF81E0A816B10421F79FEF20E782E0AE
:1008B000915020408040E1F700C00000A12CB12CF5
:1008C000D8CF0E949803DF91CF911F910F91FF9095
:1008D000EF90DF90CF90BF90AF900895A29FB001AE
:1008E000B39FC001A39F700D811D1124911DB29F64
:0E08F000700D811D1124911D0895F894FFCF05
:0A08FE003F065B4F666D7D077F6FBC
:00000001FF
