:100000000C9472000C948B000C948B000C948B005D
:100010000C948B000C948B000C948B000C948B0034
:100020000C948B000C948B000C948B000C948B0024
:100030000C948B000C948B000C948B000C948B0014
:100040000C948B000C948B000C948B000C948B0004
:100050000C948B000C948B000C948B000C948B00F4
:100060000C948B000C948B000C948B000C948B00E4
:100070000C948B000C948B000C948B000C948B00D4
:100080000C948B000C948B000C948B000C948B00C4
:100090000C948B000C948B000C948B000C948B00B4
:1000A0000C948B000C948B000C948B000C948B00A4
:1000B0000C948B000C948B000C948B000C948B0094
:1000C0000C948B000C948B000C948B000C948B0084
:1000D0000C948B000C948B000C948B000C948B0074
:1000E0000C948B0011241FBECFEFD1E2DEBFCDBF39
:1000F00000E00CBF12E0A0E0B2E0E0EDFAE000E0CA
:100100000BBF02C007900D92AA30B107D9F70E9429
:1001100011020C9466050C94000028E0EBE0F1E07D
:1001200016C090819F779083A7ECB0E01197F1F70C
:1001300000C00000908190649083A7ECB0E011971C
:10014000F1F700C0000086952150222349F09081EC
:100150009F7B908380FFE5CF908190689083E4CF70
:10016000EBE0F1E080818F7B8083AAE0B1E08C91AD
:100170008F778C9387EC90E00197F1F700C0000037
:1001800080818064808387EC90E00197F1F700C064
:10019000000080818F7B80838C9180688C93089590
:1001A000EAE0F1E0808180688083EBE0F1E080812B
:1001B0008068808380818064808387EC90E00197F1
:1001C000F1F700C0000080818F77808387EC90E09A
:1001D0000197F1F700C0000080818F7B8083089534
:1001E000EBE0F1E080818F7B808380818F7780835B
:1001F00087EC90E00197F1F700C0000080818064F7
:10020000808387EC90E00197F1F700C000008081C7
:10021000806880830895BF92CF92DF92EF92FF9221
:100220000F931F93CF93DF93082F192FC62FD72F2C
:100230009801ADECBCEC0E9457056C01D694C794B4
:10024000D694C794D694C794C601880F991F880F77
:10025000991F8C0D9D1D880F991F081B190B9E015E
:100260000E9457057C01F694E794F694E794F6947F
:10027000E794BE2CC701880F991F880F991F8E0D18
:100280009F1D880F991FC81BD90B0E94D00080E4C6
:100290000E948D000E94F0000E94D00080EC0E941D
:1002A0008D00C1101FC080E00E948D00F801E05059
:1002B000FE4F80810E948D00B1101CC080E00E9422
:1002C0008D00C050DE4F88810E948D000E94F0009A
:1002D000DF91CF911F910F91FF90EF90DF90CF9022
:1002E000BF900895F601FF27E050FE4F80810E94E5
:1002F0008D00DCCFF701FF27E050FE4F80810E9488
:100300008D00DFCF989A999A9A9A57983898509872
:10031000A098A198A2985F9A409A589A0895209A16
:10032000289AEAE0F1E080818160808380818460A6
:100330008083219A229A23988081826080838081A1
:1003400088608083EBE0F1E0808181608083808140
:1003500084608083808182608083808188608083E4
:100360008CB580648CBD8CB58F7D8CBD8CB5806167
:100370008CBD8CB5877F8CBD8CB58B7F8CBD8CB5CF
:100380008D7F8CBD8CB58E7F8CBD8DB58E7F8DBDE8
:100390000895EAE0F1E080818F7D808380818F7E07
:1003A0008083EBE0F1E080818062808380818061E6
:1003B00080830895EAE0F1E0808180648083808119
:1003C000806880830E94D0008AE80E948D000E948D
:1003D000F00060E070E080E090E00E940B01089582
:1003E0003A9A3B9A42984398E1E8F0E08081846031
:1003F000808380818D7F808380818E7F808308953C
:100400003C98449A08950E9482010E948F010E94A4
:10041000C9010E94DA010E94F0010E940002789452
:1004200008950E9403022FEF80E792E02150804060
:100430009040E1F700C000003499FECF0E94BE0357
:10044000FBCF8EBD0DB407FEFDCF8EB508951F9373
:10045000CF93DF93162FCBE0D1E098819E7F9883D6
:10046000880F8E770E942102812F0E9421028881AD
:1004700081608883DF91CF911F910895CF93DF939F
:10048000CBE0D1E098819E7F9883880F8E7780683B
:100490000E94210280E00E9421029881916098834D
:1004A000DF91CF9108951F93CF93DF93162FCBE069
:1004B000D1E098819B7F9883880F8E770E942102DC
:1004C000812F0E942102888184608883DF91CF91EF
:1004D0001F910895CF93DF93CBE0D1E098819B7F6C
:1004E0009883880F8E7780680E94210280E00E94A6
:1004F0002102988194609883DF91CF910895EBE079
:10050000F1E08081826080832FEF80E792E02150CC
:1005100080409040E1F700C0000080818D7F8083A3
:100520002FEF80E792E0215080409040E1F700C03B
:1005300000008081826080832FEF80E792E021506D
:1005400080409040E1F700C0000080818860808397
:100550002FEF80E792E0215080409040E1F700C00B
:1005600000008081877F80832FEF80E792E0215019
:1005700080409040E1F700C0000080818860808367
:100580002FEF80E792E0215080409040E1F700C0DB
:1005900000006DE381E10E94270260E485E10E9492
:1005A00027026DE381E10E94530260E485E10E942D
:1005B000530284E10E943E02982F9370933041F4DD
:1005C00084E10E946A02982F9370933039F4089561
:1005D000682F636084E10E942702F2CF682F636076
:1005E00084E10E945302F3CFCF93DF9360E081E078
:1005F0000E9427026FE784E00E94270260E88AE0F9
:100600000E94270266E289E00E9427026CE081E0F6
:100610000E94270267E88DE00E942702C8EED3E01F
:1006200084E00E943E02807381110AC0219785E315
:100630008A95F1F70000209799F780E090E00DC0CF
:1006400080E090E0CD2B49F086E00E943E02282F0A
:10065000237181E090E0211180E0DF91CF91089536
:10066000CF93DF9360E081E00E9453026FE784E064
:100670000E94530260E88AE00E94530266E289E029
:100680000E9453026CE081E00E94530267E88DE013
:100690000E945302C8EED3E084E00E946A02807395
:1006A00081110AC0219785E38A95F1F70000209710
:1006B00099F780E090E00DC080E090E0CD2B49F00C
:1006C00086E00E946A02282F237181E090E02111C8
:1006D00080E0DF91CF9108950E948F010E947F02F8
:1006E0000895892BA1F40E94F402009749F08FE14C
:1006F0009EE40197F1F700C0000081E090E00895CA
:10070000EFE1FEE43197F1F700C0000008950E9488
:100710003003009749F08FE19EE40197F1F700C0A4
:10072000000081E090E00895EFE1FEE43197F1F7F9
:1007300000C000000895A29A08952FEF89E698E17D
:10074000215080409040E1F700C00000A298089539
:10075000109285001092840081E086BB429AB09B83
:10076000FECF42980895109285001092840081E097
:1007700086BB439AB09BFECF439808958F929F9279
:10078000AF92BF92CF92DF92EF92FF920F931F939F
:10079000CF93DF930E946C03A19A3099A7C0E12CFC
:1007A000F12C00E010E0A12CB12CC12CD12CC9E01F
:1007B000D1E088248394912C72C00E949B0380E036
:1007C00090E00E947103892BB9F02FEFA21AB20AB0
:1007D000B501C6010E940B010E94B3038FEF90E7A1
:1007E00022E0815090402040E1F700C000000E94CC
:1007F0009D03082D192D5AC08FEFC81AD80AB501CC
:10080000C6010E940B010E94A8039FEF20E782E02F
:10081000915020408040E1F700C00000E8CF0E94E6
:100820009B03882D992D0E947103892BB9F09FEFAE
:10083000A91AB90AB501C6010E940B010E94B303AF
:100840002FEF80E792E0215080409040E1F700C018
:1008500000000E949D03E82CF92C2FC02FEFC21A34
:10086000D20AB501C6010E940B010E94A8038FEFB6
:1008700090E722E0815090402040E1F700C0000066
:10088000E8CF8FEF90E722E0815090402040E1F7E1
:1008900000C0000000E010E016C0309927C0888139
:1008A00085FD04C00115110509F487CF888184FDF9
:1008B00004C0E114F10409F4B2CF888185FF03C0BC
:1008C00001301105F1F2888184FFE7CF81E0E8165D
:1008D000F10419F79FEF20E782E09150204080401B
:1008E000E1F700C00000E12CF12CD7CFDF91CF91D0
:1008F0001F910F91FF90EF90DF90CF90BF90AF903E
:100900009F908F900895EAE0F1E080818F7E808350
:10091000E9E0F1E001C0439A808184FFFCCF439875
:10092000FBCFEAE0F1E080818F7E8083E1E0F1E0BF
:10093000808188608083E2E0F1E08081877F80832E
:1009400000E010E0C2E0D1E00F2EF9E0EF2EFF242E
:10095000F394F02D17C08BE296E00197F1F700C0F9
:100960000000808184FF1DC043988881877F888331
:100970008FEA94E00197F1F700C00000B801C801C8
:100980000E940B0188818860888387E493E0019747
:10099000F1F700C00000F701808184FFDCCF4398AD
:1009A000E4CF0F5F1F4F439AE0CF0E946C03A12C4E
:1009B000B12C00E010E0C12CD12CE12CF12CC9E0CD
:1009C000D1E088248394912C47C00E949B0380E04F
:1009D00090E00E947103892B61F02FEFC21AD20AB6
:1009E000B601C7010E940B010E94B303082D192D07
:1009F0003AC08FEFE81AF80AB601C7010E940B014E
:100A00000E94A803082D192D2EC00E949B03882D3B
:100A1000992D0E947103892B61F09FEFC91AD90AA1
:100A2000B601C7010E940B010E94B303A82CB92C88
:100A300020C02FEFE21AF20AB601C7010E940B0193
:100A40000E94A803A82CB92C14C0888184FF04C07C
:100A500081E0A816B104F9F0888185FD04C0011574
:100A6000110509F4B2CF888184FD03C0A114B1043B
:100A700061F2888185FFE9CF0130110531F78FEFF1
:100A800090E722E0815090402040E1F700C0000054
:100A900000E010E0DACF9FEF20E782E091502040A5
:100AA0008040E1F700C00000A12CB12CD5CFA29F5F
:100AB000B001B39FC001A39F700D811D1124911D32
:100AC000B29F700D811D1124911D0895F894FFCFE0
:0A0AD0003F065B4F666D7D077F6FE8
:00000001FF
